:100000006F00C009000000000000000000000000B8
:1000100000000000000000000000000000000000E0
:1000200000000000000000000000000000000000D0
:1000300000000000000000000000000000000000C0
:1000400000000000000000000000000000000000B0
:100050000000000088020000000000000000000016
:100060000000000000000000000000000000000090
:100070000000000000000000000000000000000080
:100080000000000000000000000000000000000070
:1000900000000000000000000000000037110020F8
:1000A00013010180970200009382C2F593E23200AF
:1000B00073905230970200009382C2017390123401
:1000C0007300203013000000130000001300000034
:1000D000371502401305850183250500930350035E
:1000E000B3E575002320B500371501401305054021
:1000F00083250500B703F1FF9383F3FFB3F5750084
:10010000B7030300B3E575002320B50037150140A0
:10011000130505418325050093030001B3E5750030
:100120002320B500371502401305C50183250500BE
:10013000B7030010B3E575002320B5003715024062
:10014000130545028325050093031000B3E57500F0
:100150002320B5008325050093F52500E38C05FEDB
:10016000EF00C00FEF00800FEF00400FEF00000F17
:10017000EF00C00EEF00800EEF00400EEF00000E0B
:10018000EF00C00D3705014013050540832505002C
:1001900093030020B3E575002320B5003705014027
:1001A0001305C5408325050093030020B3E57500C2
:1001B0002320B50037E500E01305850483250500FD
:1001C000B703000093830308B3E575002320B5004F
:1001D00037E500E01305051083250500B70320006F
:1001E000B3E575002320B500377500401305C50041
:1001F00093030002232075003775004013050501A5
:100200009303D00023207500377500401305850047
:100210008325050093032000B3E575002320B50076
:10022000377500408325050093032000B3E5750072
:100230002320B50037F500E0130505D1832505001F
:1002400093036000B3E575002320B5009302800896
:1002500073900230730050106FF0DFFF130181FFC5
:10026000232011002322610037130300130303D45A
:100270001303F3FFE31E03FE032341008320010069
:100280001301810067800000130141FC232CF1025F
:10029000232AE1022328D1022326C1022324B1020A
:1002A0002322A10223209102232E8100232C7100FE
:1002B000232A6100232851002326410023243100F2
:1002C0002322210023201100370501401305454159
:1002D0008325050093030020B3E575002320B500B6
:1002E00037E500E013050528B7032000232075003B
:1002F000371501401305054183250500B70310009C
:10030000B3E575002320B500EFF05FF53715014028
:10031000130505418325050093030001B3E575002E
:100320002320B500832001000321410083218100A7
:100330000322C100832201010323410183238101A0
:100340000324C10183240102032541028325810284
:100350000326C10283260103032741038327810368
:100360001301C103730020300000000000000000F2
:10037000000000000000000000000000000000007D
:10038000000000000000000000000000000000006D
:10039000000000000000000000000000000000005D
:1003A000000000000000000000000000000000004D
:1003B000000000000000000000000000000000003D
:1003C000000000000000000000000000000000002D
:0C03D00000000000000000000000000021
:040000030000009C5D
:00000001FF
